:020000040800F2
:100000000810002001010008350200082D02000838
:1000100031020008550100087D03000800000000BF
:100020000000000000000000000000005502000871
:1000300059010008000000003902000859020008B8
:100040001B0100081B0100081B0100081B01000820
:100050001B0100081B0100081B0100081B01000810
:100060001B0100081B0100081B0100081B01000800
:100070001B0100081B0100081B0100081B010008F0
:100080001B0100081B0100081B0100081B010008E0
:100090001B0100081B0100081B0100081B010008D0
:1000A0001B0100081B0100081B0100081B010008C0
:1000B0001B0100081B0100081B0100081B010008B0
:1000C0001B0100081B0100081B0100081B010008A0
:1000D0001B0100081B0100081B0100081B01000890
:1000E0001B0100081B0100081B010008DFF80CD0F1
:1000F00000F018F8004800478103000808100020AD
:100100000648804706480047FEE7FEE7FEE7FEE7B1
:10011000FEE7FEE7FEE7FEE7FEE7FEE77102000806
:10012000ED0000081CB509480090094801900546FB
:10013000009C06E0E06840F0010394E8070098475F
:100140001034AC42F6D3FFF7D5FF000004040008DA
:1001500014040008FEE7000070470000CA7802F0AF
:100160000F0CD30644BF8B784CEA030C2DE9F04703
:1001700009880B0624D086465EF8143B00F110086F
:1001800000254FF0010A4FF00F09002406E000BFE0
:1001900037600134082C05F1040510D00AFA04F781
:1001A0000F42F6D009FA05F6B3430CFA05F63343CD
:1001B000282A7646ECD0482AEBD14646E8E7036089
:1001C000B1F5807F38BFBDE8F087436800F1100EBD
:1001D00000F1140A00254FF480794FF00F08002732
:1001E00006E000BF26600137082F05F1040510D096
:1001F00009FA07F60E42F6D008FA05F4A3430CFA02
:1002000005F42343282A5446ECD0482AEBD17446FF
:10021000E8E74360BDE8F0878068084018BF012028
:10022000704700004161704701617047FEE70000C0
:10023000FEE700007047000070470000002941F20F
:100240001801C4F202010A680CBF22EA0000104340
:10025000086070477047000040F20000C2F20000E2
:10026000D0E90012013142F10002C0E900127047EA
:1002700082B041F20400C4F2020050F8041C0022D3
:1002800041F0010140F8041C0168CFF6FF02114063
:10029000016050F8041C4FF6FF72CFF6F662114071
:1002A00040F8041C50F8041C21F4802140F8041C80
:1002B000016821F4FE0101604FF41F01416000213B
:1002C0000191009150F8041C41F4803140F8041C65
:1002D00050F8041C01F400310091019901310191A1
:1002E000009919B90199B1F5A06FF1D150F8041C2A
:1002F000C1F3404100910099012936D142F2000139
:10030000C4F202010A6842F010020A600A6822F090
:1003100007020A600A6842F002020A60016801608E
:1003200001680160016841F480610160016821F4A5
:100330007C110160016841F4E811016050F8041C6F
:1003400041F0807140F8041C50F8041C8901FBD571
:10035000016821F003010160016841F002010160C0
:10036000016801F00C010829FAD14EF60850CEF2CE
:1003700000004FF00061016002B07047FEE700002E
:1003800082B0002040F60004019004200121C4F254
:100390000104FFF753FF0120C1F2020001AD0190FB
:1003A00020462946FFF7DAFE20460121FFF73AFFF3
:1003B0000220ADF8040048208DF8070020462946A9
:1003C000FFF7CCFE04E000BF20460121FFF72AFF23
:1003D00020460221FFF720FF0028F5D12046012109
:1003E000FFF722FFF4E702E008C8121F08C1002A45
:1003F000FAD170477047002001E001C1121F002AA6
:10040000FBD1704714040008000000200810000011
:04041000F6030008E7
:04000005080000ED02
:00000001FF
